{
  "contractName": "Budget",
  "abi": [
    {
      "constant": true,
      "inputs": [],
      "name": "name",
      "outputs": [
        {
          "name": "",
          "type": "string"
        }
      ],
      "payable": false,
      "stateMutability": "view",
      "type": "function"
    },
    {
      "constant": false,
      "inputs": [
        {
          "name": "spender",
          "type": "address"
        },
        {
          "name": "value",
          "type": "uint256"
        }
      ],
      "name": "approve",
      "outputs": [
        {
          "name": "",
          "type": "bool"
        }
      ],
      "payable": false,
      "stateMutability": "nonpayable",
      "type": "function"
    },
    {
      "constant": true,
      "inputs": [],
      "name": "totalSupply",
      "outputs": [
        {
          "name": "",
          "type": "uint256"
        }
      ],
      "payable": false,
      "stateMutability": "view",
      "type": "function"
    },
    {
      "constant": false,
      "inputs": [
        {
          "name": "sender",
          "type": "address"
        },
        {
          "name": "recipient",
          "type": "address"
        },
        {
          "name": "amount",
          "type": "uint256"
        }
      ],
      "name": "transferFrom",
      "outputs": [
        {
          "name": "",
          "type": "bool"
        }
      ],
      "payable": false,
      "stateMutability": "nonpayable",
      "type": "function"
    },
    {
      "constant": true,
      "inputs": [],
      "name": "endTime",
      "outputs": [
        {
          "name": "",
          "type": "uint256"
        }
      ],
      "payable": false,
      "stateMutability": "view",
      "type": "function"
    },
    {
      "constant": false,
      "inputs": [
        {
          "name": "spender",
          "type": "address"
        },
        {
          "name": "addedValue",
          "type": "uint256"
        }
      ],
      "name": "increaseAllowance",
      "outputs": [
        {
          "name": "",
          "type": "bool"
        }
      ],
      "payable": false,
      "stateMutability": "nonpayable",
      "type": "function"
    },
    {
      "constant": true,
      "inputs": [
        {
          "name": "",
          "type": "uint256"
        }
      ],
      "name": "options",
      "outputs": [
        {
          "name": "name",
          "type": "bytes32"
        },
        {
          "name": "vote_count",
          "type": "uint256"
        }
      ],
      "payable": false,
      "stateMutability": "view",
      "type": "function"
    },
    {
      "constant": true,
      "inputs": [
        {
          "name": "account",
          "type": "address"
        }
      ],
      "name": "balanceOf",
      "outputs": [
        {
          "name": "",
          "type": "uint256"
        }
      ],
      "payable": false,
      "stateMutability": "view",
      "type": "function"
    },
    {
      "constant": true,
      "inputs": [
        {
          "name": "",
          "type": "address"
        }
      ],
      "name": "voters",
      "outputs": [
        {
          "name": "voted",
          "type": "bool"
        },
        {
          "name": "name",
          "type": "address"
        },
        {
          "name": "vote_index",
          "type": "uint256"
        }
      ],
      "payable": false,
      "stateMutability": "view",
      "type": "function"
    },
    {
      "constant": false,
      "inputs": [
        {
          "name": "spender",
          "type": "address"
        },
        {
          "name": "subtractedValue",
          "type": "uint256"
        }
      ],
      "name": "decreaseAllowance",
      "outputs": [
        {
          "name": "",
          "type": "bool"
        }
      ],
      "payable": false,
      "stateMutability": "nonpayable",
      "type": "function"
    },
    {
      "constant": false,
      "inputs": [
        {
          "name": "recipient",
          "type": "address"
        },
        {
          "name": "amount",
          "type": "uint256"
        }
      ],
      "name": "transfer",
      "outputs": [
        {
          "name": "",
          "type": "bool"
        }
      ],
      "payable": false,
      "stateMutability": "nonpayable",
      "type": "function"
    },
    {
      "constant": true,
      "inputs": [
        {
          "name": "owner",
          "type": "address"
        },
        {
          "name": "spender",
          "type": "address"
        }
      ],
      "name": "allowance",
      "outputs": [
        {
          "name": "",
          "type": "uint256"
        }
      ],
      "payable": false,
      "stateMutability": "view",
      "type": "function"
    },
    {
      "inputs": [
        {
          "name": "_name",
          "type": "string"
        },
        {
          "name": "_moneyRequested",
          "type": "uint256"
        },
        {
          "name": "_daysAfter",
          "type": "uint256"
        }
      ],
      "payable": false,
      "stateMutability": "nonpayable",
      "type": "constructor"
    },
    {
      "anonymous": false,
      "inputs": [
        {
          "indexed": true,
          "name": "from",
          "type": "address"
        },
        {
          "indexed": true,
          "name": "to",
          "type": "address"
        },
        {
          "indexed": false,
          "name": "value",
          "type": "uint256"
        }
      ],
      "name": "Transfer",
      "type": "event"
    },
    {
      "anonymous": false,
      "inputs": [
        {
          "indexed": true,
          "name": "owner",
          "type": "address"
        },
        {
          "indexed": true,
          "name": "spender",
          "type": "address"
        },
        {
          "indexed": false,
          "name": "value",
          "type": "uint256"
        }
      ],
      "name": "Approval",
      "type": "event"
    },
    {
      "constant": false,
      "inputs": [],
      "name": "voteEnd",
      "outputs": [],
      "payable": false,
      "stateMutability": "nonpayable",
      "type": "function"
    },
    {
      "constant": false,
      "inputs": [],
      "name": "votePass",
      "outputs": [],
      "payable": false,
      "stateMutability": "nonpayable",
      "type": "function"
    },
    {
      "constant": false,
      "inputs": [
        {
          "name": "option",
          "type": "uint256"
        }
      ],
      "name": "vote",
      "outputs": [],
      "payable": false,
      "stateMutability": "nonpayable",
      "type": "function"
    },
    {
      "constant": true,
      "inputs": [
        {
          "name": "option",
          "type": "uint256"
        }
      ],
      "name": "num_votes",
      "outputs": [
        {
          "name": "num_votes_",
          "type": "uint256"
        }
      ],
      "payable": false,
      "stateMutability": "view",
      "type": "function"
    },
    {
      "constant": true,
      "inputs": [],
      "name": "total_votes",
      "outputs": [
        {
          "name": "total_votes_",
          "type": "uint256"
        }
      ],
      "payable": false,
      "stateMutability": "view",
      "type": "function"
    }
  ],
  "bytecode": "0x60806040523480156200001157600080fd5b50604051620019d9380380620019d98339810180604052620000379190810190620002e0565b82600390805190602001906200004f929190620001be565b5033600460006101000a81548173ffffffffffffffffffffffffffffffffffffffff021916908373ffffffffffffffffffffffffffffffffffffffff16021790555062015180810242016006819055506000600760006101000a81548160ff02191690831515021790555081600881905550600a60405180604001604052807f796573000000000000000000000000000000000000000000000000000000000081526020016000815250908060018154018082558091505090600182039060005260206000209060020201600090919290919091506000820151816000015560208201518160010155505050600a60405180604001604052807f6e6f0000000000000000000000000000000000000000000000000000000000008152602001600081525090806001815401808255809150509060018203906000526020600020906002020160009091929091909150600082015181600001556020820151816001015550505050505062000404565b828054600181600116156101000203166002900490600052602060002090601f016020900481019282601f106200020157805160ff191683800117855562000232565b8280016001018555821562000232579182015b828111156200023157825182559160200191906001019062000214565b5b50905062000241919062000245565b5090565b6200026a91905b80821115620002665760008160009055506001016200024c565b5090565b90565b600082601f8301126200027f57600080fd5b81516200029662000290826200037d565b6200034f565b91508082526020830160208301858383011115620002b357600080fd5b620002c0838284620003b4565b50505092915050565b600081519050620002da81620003ea565b92915050565b600080600060608486031215620002f657600080fd5b600084015167ffffffffffffffff8111156200031157600080fd5b6200031f868287016200026d565b93505060206200033286828701620002c9565b92505060406200034586828701620002c9565b9150509250925092565b6000604051905081810181811067ffffffffffffffff821117156200037357600080fd5b8060405250919050565b600067ffffffffffffffff8211156200039557600080fd5b601f19601f8301169050602081019050919050565b6000819050919050565b60005b83811015620003d4578082015181840152602081019050620003b7565b83811115620003e4576000848401525b50505050565b620003f581620003aa565b81146200040157600080fd5b50565b6115c580620004146000396000f3fe608060405234801561001057600080fd5b506004361061010b5760003560e01c80636ede603d116100a2578063a834b05511610071578063a834b055146102f7578063a9059cbb14610327578063dd62ed3e14610357578063ddbe8f0914610387578063f7dd79c4146103915761010b565b80636ede603d1461024757806370a0823114610265578063a3ec138d14610295578063a457c2d7146102c75761010b565b806323b872dd116100de57806323b872dd146101985780633197cbb6146101c857806339509351146101e6578063409e2205146102165761010b565b80630121b93f1461011057806306fdde031461012c578063095ea7b31461014a57806318160ddd1461017a575b600080fd5b61012a6004803603610125919081019061101d565b61039b565b005b610134610487565b604051610141919061138e565b60405180910390f35b610164600480360361015f9190810190610fe1565b610525565b6040516101719190611313565b60405180910390f35b61018261053c565b60405161018f9190611490565b60405180910390f35b6101b260048036036101ad9190810190610f92565b610546565b6040516101bf9190611313565b60405180910390f35b6101d06105f7565b6040516101dd9190611490565b60405180910390f35b61020060048036036101fb9190810190610fe1565b6105fd565b60405161020d9190611313565b60405180910390f35b610230600480360361022b919081019061101d565b6106a2565b60405161023e929190611365565b60405180910390f35b61024f6106d3565b60405161025c9190611490565b60405180910390f35b61027f600480360361027a9190810190610f2d565b610706565b60405161028c9190611490565b60405180910390f35b6102af60048036036102aa9190810190610f2d565b61074e565b6040516102be9392919061132e565b60405180910390f35b6102e160048036036102dc9190810190610fe1565b6107a5565b6040516102ee9190611313565b60405180910390f35b610311600480360361030c919081019061101d565b61084a565b60405161031e9190611490565b60405180910390f35b610341600480360361033c9190810190610fe1565b610872565b60405161034e9190611313565b60405180910390f35b610371600480360361036c9190810190610f56565b610889565b60405161037e9190611490565b60405180910390f35b61038f610910565b005b610399610956565b005b6000600960003373ffffffffffffffffffffffffffffffffffffffff1673ffffffffffffffffffffffffffffffffffffffff16815260200190815260200160002090508060000160009054906101000a900460ff1615610430576040517f08c379a000000000000000000000000000000000000000000000000000000000815260040161042790611430565b60405180910390fd5b60018160000160006101000a81548160ff0219169083151502179055508181600101819055506001600a838154811061046557fe5b9060005260206000209060020201600101600082825401925050819055505050565b60038054600181600116156101000203166002900480601f01602080910402602001604051908101604052809291908181526020018280546001816001161561010002031660029004801561051d5780601f106104f25761010080835404028352916020019161051d565b820191906000526020600020905b81548152906001019060200180831161050057829003601f168201915b505050505081565b6000610532338484610a1d565b6001905092915050565b6000600254905090565b6000610553848484610be8565b6105ec84336105e785600160008a73ffffffffffffffffffffffffffffffffffffffff1673ffffffffffffffffffffffffffffffffffffffff16815260200190815260200160002060003373ffffffffffffffffffffffffffffffffffffffff1673ffffffffffffffffffffffffffffffffffffffff16815260200190815260200160002054610e5890919063ffffffff16565b610a1d565b600190509392505050565b60065481565b6000610698338461069385600160003373ffffffffffffffffffffffffffffffffffffffff1673ffffffffffffffffffffffffffffffffffffffff16815260200190815260200160002060008973ffffffffffffffffffffffffffffffffffffffff1673ffffffffffffffffffffffffffffffffffffffff16815260200190815260200160002054610eae90919063ffffffff16565b610a1d565b6001905092915050565b600a81815481106106af57fe5b90600052602060002090600202016000915090508060000154908060010154905082565b600080600090505b600a80549050811015610702576106f18161084a565b8201915080806001019150506106db565b5090565b60008060008373ffffffffffffffffffffffffffffffffffffffff1673ffffffffffffffffffffffffffffffffffffffff168152602001908152602001600020549050919050565b60096020528060005260406000206000915090508060000160009054906101000a900460ff16908060000160019054906101000a900473ffffffffffffffffffffffffffffffffffffffff16908060010154905083565b6000610840338461083b85600160003373ffffffffffffffffffffffffffffffffffffffff1673ffffffffffffffffffffffffffffffffffffffff16815260200190815260200160002060008973ffffffffffffffffffffffffffffffffffffffff1673ffffffffffffffffffffffffffffffffffffffff16815260200190815260200160002054610e5890919063ffffffff16565b610a1d565b6001905092915050565b6000600a828154811061085957fe5b9060005260206000209060020201600101549050919050565b600061087f338484610be8565b6001905092915050565b6000600160008473ffffffffffffffffffffffffffffffffffffffff1673ffffffffffffffffffffffffffffffffffffffff16815260200190815260200160002060008373ffffffffffffffffffffffffffffffffffffffff1673ffffffffffffffffffffffffffffffffffffffff16815260200190815260200160002054905092915050565b60065442101561091f57600080fd5b600760009054906101000a900460ff161561093957600080fd5b6001600760006101000a81548160ff021916908315150217905550565b600a6109606106d3565b10158015610987575060026109736106d3565b8161097a57fe5b04610985600061084a565b115b61099057600080fd5b600460009054906101000a900473ffffffffffffffffffffffffffffffffffffffff1673ffffffffffffffffffffffffffffffffffffffff163373ffffffffffffffffffffffffffffffffffffffff1614156109eb57600080fd5b610a1a33600460009054906101000a900473ffffffffffffffffffffffffffffffffffffffff16600854610546565b50565b600073ffffffffffffffffffffffffffffffffffffffff168373ffffffffffffffffffffffffffffffffffffffff161415610a8d576040517f08c379a0000000000000000000000000000000000000000000000000000000008152600401610a8490611470565b60405180910390fd5b600073ffffffffffffffffffffffffffffffffffffffff168273ffffffffffffffffffffffffffffffffffffffff161415610afd576040517f08c379a0000000000000000000000000000000000000000000000000000000008152600401610af4906113d0565b60405180910390fd5b80600160008573ffffffffffffffffffffffffffffffffffffffff1673ffffffffffffffffffffffffffffffffffffffff16815260200190815260200160002060008473ffffffffffffffffffffffffffffffffffffffff1673ffffffffffffffffffffffffffffffffffffffff168152602001908152602001600020819055508173ffffffffffffffffffffffffffffffffffffffff168373ffffffffffffffffffffffffffffffffffffffff167f8c5be1e5ebec7d5bd14f71427d1e84f3dd0314c0f7b2291e5b200ac8c7c3b92583604051610bdb9190611490565b60405180910390a3505050565b600073ffffffffffffffffffffffffffffffffffffffff168373ffffffffffffffffffffffffffffffffffffffff161415610c58576040517f08c379a0000000000000000000000000000000000000000000000000000000008152600401610c4f90611450565b60405180910390fd5b600073ffffffffffffffffffffffffffffffffffffffff168273ffffffffffffffffffffffffffffffffffffffff161415610cc8576040517f08c379a0000000000000000000000000000000000000000000000000000000008152600401610cbf906113b0565b60405180910390fd5b610d19816000808673ffffffffffffffffffffffffffffffffffffffff1673ffffffffffffffffffffffffffffffffffffffff16815260200190815260200160002054610e5890919063ffffffff16565b6000808573ffffffffffffffffffffffffffffffffffffffff1673ffffffffffffffffffffffffffffffffffffffff16815260200190815260200160002081905550610dac816000808573ffffffffffffffffffffffffffffffffffffffff1673ffffffffffffffffffffffffffffffffffffffff16815260200190815260200160002054610eae90919063ffffffff16565b6000808473ffffffffffffffffffffffffffffffffffffffff1673ffffffffffffffffffffffffffffffffffffffff168152602001908152602001600020819055508173ffffffffffffffffffffffffffffffffffffffff168373ffffffffffffffffffffffffffffffffffffffff167fddf252ad1be2c89b69c2b068fc378daa952ba7f163c4a11628f55a4df523b3ef83604051610e4b9190611490565b60405180910390a3505050565b600082821115610e9d576040517f08c379a0000000000000000000000000000000000000000000000000000000008152600401610e9490611410565b60405180910390fd5b600082840390508091505092915050565b600080828401905083811015610ef9576040517f08c379a0000000000000000000000000000000000000000000000000000000008152600401610ef0906113f0565b60405180910390fd5b8091505092915050565b600081359050610f128161155d565b92915050565b600081359050610f2781611574565b92915050565b600060208284031215610f3f57600080fd5b6000610f4d84828501610f03565b91505092915050565b60008060408385031215610f6957600080fd5b6000610f7785828601610f03565b9250506020610f8885828601610f03565b9150509250929050565b600080600060608486031215610fa757600080fd5b6000610fb586828701610f03565b9350506020610fc686828701610f03565b9250506040610fd786828701610f18565b9150509250925092565b60008060408385031215610ff457600080fd5b600061100285828601610f03565b925050602061101385828601610f18565b9150509250929050565b60006020828403121561102f57600080fd5b600061103d84828501610f18565b91505092915050565b61104f816114c7565b82525050565b61105e816114d9565b82525050565b61106d816114e5565b82525050565b600061107e826114ab565b61108881856114b6565b9350611098818560208601611519565b6110a18161154c565b840191505092915050565b60006110b96023836114b6565b91507f45524332303a207472616e7366657220746f20746865207a65726f206164647260008301527f65737300000000000000000000000000000000000000000000000000000000006020830152604082019050919050565b600061111f6022836114b6565b91507f45524332303a20617070726f766520746f20746865207a65726f20616464726560008301527f73730000000000000000000000000000000000000000000000000000000000006020830152604082019050919050565b6000611185601b836114b6565b91507f536166654d6174683a206164646974696f6e206f766572666c6f7700000000006000830152602082019050919050565b60006111c5601e836114b6565b91507f536166654d6174683a207375627472616374696f6e206f766572666c6f7700006000830152602082019050919050565b6000611205600e836114b6565b91507f416c726561647920766f7465642e0000000000000000000000000000000000006000830152602082019050919050565b60006112456025836114b6565b91507f45524332303a207472616e736665722066726f6d20746865207a65726f20616460008301527f64726573730000000000000000000000000000000000000000000000000000006020830152604082019050919050565b60006112ab6024836114b6565b91507f45524332303a20617070726f76652066726f6d20746865207a65726f2061646460008301527f72657373000000000000000000000000000000000000000000000000000000006020830152604082019050919050565b61130d8161150f565b82525050565b60006020820190506113286000830184611055565b92915050565b60006060820190506113436000830186611055565b6113506020830185611046565b61135d6040830184611304565b949350505050565b600060408201905061137a6000830185611064565b6113876020830184611304565b9392505050565b600060208201905081810360008301526113a88184611073565b905092915050565b600060208201905081810360008301526113c9816110ac565b9050919050565b600060208201905081810360008301526113e981611112565b9050919050565b6000602082019050818103600083015261140981611178565b9050919050565b60006020820190508181036000830152611429816111b8565b9050919050565b60006020820190508181036000830152611449816111f8565b9050919050565b6000602082019050818103600083015261146981611238565b9050919050565b600060208201905081810360008301526114898161129e565b9050919050565b60006020820190506114a56000830184611304565b92915050565b600081519050919050565b600082825260208201905092915050565b60006114d2826114ef565b9050919050565b60008115159050919050565b6000819050919050565b600073ffffffffffffffffffffffffffffffffffffffff82169050919050565b6000819050919050565b60005b8381101561153757808201518184015260208101905061151c565b83811115611546576000848401525b50505050565b6000601f19601f8301169050919050565b611566816114c7565b811461157157600080fd5b50565b61157d8161150f565b811461158857600080fd5b5056fea265627a7a723058209f9ade78a8580931a63a48ef08ed6123fa0e54352e494bc64636cb118e66621f6c6578706572696d656e74616cf50037",
  "source": "pragma solidity ^0.5.0;\r\npragma experimental ABIEncoderV2;\r\n\r\nimport \"./ERC20.sol\";\r\n\r\ncontract Budget is ERC20{\r\n\r\n    string public name;\r\n    address creator;\r\n    address admin;\r\n    uint public endTime;\r\n    bool ended;\r\n    uint moneyRequested;\r\n\r\n    constructor(string memory _name, uint _moneyRequested, uint _daysAfter) public {\r\n\t    name = _name;\r\n        creator = msg.sender;\r\n\t    endTime = now + (_daysAfter * 1 days);\r\n        ended = false;\r\n        moneyRequested = _moneyRequested;\r\n\r\n        options.push(Option({\r\n        name: \"yes\",\r\n        vote_count: 0\r\n        }));\r\n\r\n        options.push(Option({\r\n        name: \"no\",\r\n        vote_count: 0\r\n        }));\r\n    }\r\n\r\n    function voteEnd() public {\r\n        require(now >= endTime);\r\n        require(!ended);\r\n\r\n        ended = true;\r\n    }\r\n\r\n    function votePass() public {\r\n        // 3. Conditions for Votes\r\n        require((total_votes() >= 10) && (num_votes(0) > total_votes()/2));\r\n        require(msg.sender != creator);\r\n\r\n        // 4. Effects\r\n        transferFrom(msg.sender, creator, moneyRequested);\r\n    }\r\n\r\n    struct Option {\r\n        bytes32 name;\r\n        uint vote_count;\r\n    }\r\n\r\n    struct Voter {\r\n        bool voted;\r\n        address name;\r\n        uint vote_index;\r\n    }\r\n\r\n    mapping(address => Voter) public voters;\r\n\r\n    Option[] public options;\r\n\r\n    function vote(uint option) public {\r\n        Voter storage sender = voters[msg.sender];\r\n        require(!sender.voted, \"Already voted.\");\r\n        sender.voted = true;\r\n        sender.vote_index = option;\r\n\r\n        options[option].vote_count += 1;\r\n    }\r\n\r\n    function num_votes(uint option) public view returns(uint num_votes_) {\r\n        num_votes_ = options[option].vote_count;\r\n    }\r\n\r\n    function total_votes() public view returns(uint total_votes_) {\r\n        for(uint option = 0; option < options.length; option++) {\r\n            total_votes_ += num_votes(option);\r\n        }\r\n    }\r\n}",
  "sourcePath": "C:/Users/Michael/budget/contracts/Budget.sol",
  "compiler": {
    "name": "solc",
    "version": "0.5.8+commit.23d335f2.Emscripten.clang"
  },
  "schemaVersion": "3.0.11",
  "updatedAt": "2019-07-17T19:24:22.376Z",
  "devdoc": {
    "methods": {
      "allowance(address,address)": {
        "details": "See `IERC20.allowance`.\r"
      },
      "approve(address,uint256)": {
        "details": "See `IERC20.approve`.\r      * Requirements:\r      * - `spender` cannot be the zero address.\r"
      },
      "balanceOf(address)": {
        "details": "See `IERC20.balanceOf`.\r"
      },
      "decreaseAllowance(address,uint256)": {
        "details": "Atomically decreases the allowance granted to `spender` by the caller.\r      * This is an alternative to `approve` that can be used as a mitigation for\r problems described in `IERC20.approve`.\r      * Emits an `Approval` event indicating the updated allowance.\r      * Requirements:\r      * - `spender` cannot be the zero address.\r - `spender` must have allowance for the caller of at least\r `subtractedValue`.\r"
      },
      "increaseAllowance(address,uint256)": {
        "details": "Atomically increases the allowance granted to `spender` by the caller.\r      * This is an alternative to `approve` that can be used as a mitigation for\r problems described in `IERC20.approve`.\r      * Emits an `Approval` event indicating the updated allowance.\r      * Requirements:\r      * - `spender` cannot be the zero address.\r"
      },
      "totalSupply()": {
        "details": "See `IERC20.totalSupply`.\r"
      },
      "transfer(address,uint256)": {
        "details": "See `IERC20.transfer`.\r      * Requirements:\r      * - `recipient` cannot be the zero address.\r - the caller must have a balance of at least `amount`.\r"
      },
      "transferFrom(address,address,uint256)": {
        "details": "See `IERC20.transferFrom`.\r      * Emits an `Approval` event indicating the updated allowance. This is not\r required by the EIP. See the note at the beginning of `ERC20`;\r      * Requirements:\r - `sender` and `recipient` cannot be the zero address.\r - `sender` must have a balance of at least `value`.\r - the caller must have allowance for `sender`'s tokens of at least\r `amount`.\r"
      }
    }
  },
  "userdoc": {
    "methods": {}
  }
}