{
  "contractName": "Vote",
  "abi": [
    {
      "constant": true,
      "inputs": [],
      "name": "end_time",
      "outputs": [
        {
          "name": "",
          "type": "uint256"
        }
      ],
      "payable": false,
      "stateMutability": "view",
      "type": "function"
    },
    {
      "constant": true,
      "inputs": [
        {
          "name": "",
          "type": "uint256"
        }
      ],
      "name": "options",
      "outputs": [
        {
          "name": "name",
          "type": "bytes32"
        },
        {
          "name": "vote_count",
          "type": "uint256"
        }
      ],
      "payable": false,
      "stateMutability": "view",
      "type": "function"
    },
    {
      "constant": true,
      "inputs": [
        {
          "name": "",
          "type": "address"
        }
      ],
      "name": "voters",
      "outputs": [
        {
          "name": "voted",
          "type": "bool"
        },
        {
          "name": "name",
          "type": "address"
        },
        {
          "name": "vote_index",
          "type": "uint256"
        }
      ],
      "payable": false,
      "stateMutability": "view",
      "type": "function"
    },
    {
      "constant": false,
      "inputs": [
        {
          "name": "choices",
          "type": "bytes32[]"
        },
        {
          "name": "time_limit",
          "type": "uint256"
        }
      ],
      "name": "generate_vote",
      "outputs": [],
      "payable": false,
      "stateMutability": "nonpayable",
      "type": "function"
    },
    {
      "constant": false,
      "inputs": [
        {
          "name": "option",
          "type": "uint256"
        }
      ],
      "name": "vote",
      "outputs": [],
      "payable": false,
      "stateMutability": "nonpayable",
      "type": "function"
    },
    {
      "constant": true,
      "inputs": [
        {
          "name": "option",
          "type": "uint256"
        }
      ],
      "name": "num_votes",
      "outputs": [
        {
          "name": "num_votes_",
          "type": "uint256"
        }
      ],
      "payable": false,
      "stateMutability": "view",
      "type": "function"
    },
    {
      "constant": true,
      "inputs": [],
      "name": "total_votes",
      "outputs": [
        {
          "name": "total_votes_",
          "type": "uint256"
        }
      ],
      "payable": false,
      "stateMutability": "view",
      "type": "function"
    },
    {
      "constant": true,
      "inputs": [],
      "name": "winning_option",
      "outputs": [
        {
          "name": "winning_option_",
          "type": "uint256"
        }
      ],
      "payable": false,
      "stateMutability": "view",
      "type": "function"
    },
    {
      "constant": true,
      "inputs": [],
      "name": "winner_name",
      "outputs": [
        {
          "name": "winner_name_",
          "type": "bytes32"
        }
      ],
      "payable": false,
      "stateMutability": "view",
      "type": "function"
    },
    {
      "constant": false,
      "inputs": [],
      "name": "end_vote",
      "outputs": [],
      "payable": false,
      "stateMutability": "nonpayable",
      "type": "function"
    }
  ],
  "bytecode": "0x608060405234801561001057600080fd5b50610ada806100206000396000f3fe608060405234801561001057600080fd5b506004361061009e5760003560e01c80636ede603d116100665780636ede603d146101345780637f8bdde0146101525780638be8932f14610170578063a3ec138d1461018e578063a834b055146101c05761009e565b80630121b93f146100a357806307a1d463146100bf57806316243356146100db5780631f6933c3146100f9578063409e220514610103575b600080fd5b6100bd60048036036100b89190810190610728565b6101f0565b005b6100d960048036036100d491908101906106d4565b61031f565b005b6100e36103d6565b6040516100f09190610988565b60405180910390f35b6101016103dc565b005b61011d60048036036101189190810190610728565b61048e565b60405161012b9291906108df565b60405180910390f35b61013c6104bf565b6040516101499190610988565b60405180910390f35b61015a6104f2565b60405161016791906108c4565b60405180910390f35b61017861051f565b6040516101859190610988565b60405180910390f35b6101a860048036036101a391908101906106ab565b61056a565b6040516101b79392919061088d565b60405180910390f35b6101da60048036036101d59190810190610728565b6105c1565b6040516101e79190610988565b60405180910390f35b60008060003373ffffffffffffffffffffffffffffffffffffffff1673ffffffffffffffffffffffffffffffffffffffff1681526020019081526020016000209050600254421115610277576040517f08c379a000000000000000000000000000000000000000000000000000000000815260040161026e90610948565b60405180910390fd5b8060000160009054906101000a900460ff16156102c9576040517f08c379a00000000000000000000000000000000000000000000000000000000081526004016102c090610908565b60405180910390fd5b60018160000160006101000a81548160ff02191690831515021790555081816001018190555060018083815481106102fd57fe5b9060005260206000209060020201600101600082825401925050819055505050565b60008090505b82518110156103a8576001604051806040016040528085848151811061034757fe5b6020026020010151815260200160008152509080600181540180825580915050906001820390600052602060002090600202016000909192909190915060008201518160000155602082015181600101555050508080600101915050610325565b5062015180810242016002819055506000600360006101000a81548160ff0219169083151502179055505050565b60025481565b600254421015610421576040517f08c379a000000000000000000000000000000000000000000000000000000000815260040161041890610928565b60405180910390fd5b600360009054906101000a900460ff1615610471576040517f08c379a000000000000000000000000000000000000000000000000000000000815260040161046890610968565b60405180910390fd5b6001600360006101000a81548160ff021916908315150217905550565b6001818154811061049b57fe5b90600052602060002090600202016000915090508060000154908060010154905082565b600080600090505b6001805490508110156104ee576104dd816105c1565b8201915080806001019150506104c7565b5090565b600060016104fe61051f565b8154811061050857fe5b906000526020600020906002020160000154905090565b6000806000905060008090505b6001805490508110156105655781610543826105c1565b111561055857610552816105c1565b91508092505b808060010191505061052c565b505090565b60006020528060005260406000206000915090508060000160009054906101000a900460ff16908060000160019054906101000a900473ffffffffffffffffffffffffffffffffffffffff16908060010154905083565b6000600182815481106105d057fe5b9060005260206000209060020201600101549050919050565b6000813590506105f881610a5b565b92915050565b600082601f83011261060f57600080fd5b813561062261061d826109d0565b6109a3565b9150818183526020840193506020810190508385602084028201111561064757600080fd5b60005b83811015610677578161065d8882610681565b84526020840193506020830192505060018101905061064a565b5050505092915050565b60008135905061069081610a72565b92915050565b6000813590506106a581610a89565b92915050565b6000602082840312156106bd57600080fd5b60006106cb848285016105e9565b91505092915050565b600080604083850312156106e757600080fd5b600083013567ffffffffffffffff81111561070157600080fd5b61070d858286016105fe565b925050602061071e85828601610696565b9150509250929050565b60006020828403121561073a57600080fd5b600061074884828501610696565b91505092915050565b61075a81610a09565b82525050565b61076981610a1b565b82525050565b61077881610a27565b82525050565b600061078b600e836109f8565b91507f416c726561647920766f7465642e0000000000000000000000000000000000006000830152602082019050919050565b60006107cb6012836109f8565b91507f766f7465206e6f7420656e6465642079657400000000000000000000000000006000830152602082019050919050565b600061080b600a836109f8565b91507f566f746520656e646564000000000000000000000000000000000000000000006000830152602082019050919050565b600061084b600d836109f8565b91507f616c726561647920656e646564000000000000000000000000000000000000006000830152602082019050919050565b61088781610a51565b82525050565b60006060820190506108a26000830186610760565b6108af6020830185610751565b6108bc604083018461087e565b949350505050565b60006020820190506108d9600083018461076f565b92915050565b60006040820190506108f4600083018561076f565b610901602083018461087e565b9392505050565b600060208201905081810360008301526109218161077e565b9050919050565b60006020820190508181036000830152610941816107be565b9050919050565b60006020820190508181036000830152610961816107fe565b9050919050565b600060208201905081810360008301526109818161083e565b9050919050565b600060208201905061099d600083018461087e565b92915050565b6000604051905081810181811067ffffffffffffffff821117156109c657600080fd5b8060405250919050565b600067ffffffffffffffff8211156109e757600080fd5b602082029050602081019050919050565b600082825260208201905092915050565b6000610a1482610a31565b9050919050565b60008115159050919050565b6000819050919050565b600073ffffffffffffffffffffffffffffffffffffffff82169050919050565b6000819050919050565b610a6481610a09565b8114610a6f57600080fd5b50565b610a7b81610a27565b8114610a8657600080fd5b50565b610a9281610a51565b8114610a9d57600080fd5b5056fea265627a7a723058206fb53b0303c03b99d58e79d2091fac4942a9468fca87d6b41840f0740b4419726c6578706572696d656e74616cf50037",
  "source": "pragma solidity ^0.5.0;\r\npragma experimental ABIEncoderV2;\r\n\r\ncontract Vote{\r\n    \r\n    mapping(address => Voter) public voters; \r\n    Option[] public options;\r\n    uint public end_time;\r\n    bool ended; \r\n\r\n    struct Option {\r\n        bytes32 name;\r\n        uint vote_count;\r\n    }\r\n\r\n    struct Voter {\r\n        // uint reputation;\r\n        bool voted;\r\n        address name;\r\n        uint vote_index; //index of option voted for\r\n    }\r\n\r\n    function generate_vote(bytes32[] memory choices, uint time_limit) public {\r\n        for(uint i = 0; i < choices.length; i++) {\r\n            options.push(Option({\r\n                name: choices[i],\r\n                vote_count : 0\r\n            }));\r\n        }\r\n        end_time = now + (time_limit * 1 days);\r\n        ended = false;\r\n    }\r\n\r\n    function vote(uint option) public {\r\n        Voter storage sender = voters[msg.sender];\r\n        require(now <= end_time, \"Vote ended\");\r\n        require(!sender.voted, \"Already voted.\");\r\n        sender.voted = true;\r\n        sender.vote_index = option;\r\n        options[option].vote_count += 1;\r\n    }\r\n\r\n    function num_votes(uint option) public view returns(uint num_votes_) {\r\n        num_votes_ = options[option].vote_count;\r\n    }\r\n\r\n    function total_votes() public view returns(uint total_votes_) {\r\n        for(uint option = 0; option < options.length; option++) {\r\n            total_votes_ += num_votes(option);\r\n        }\r\n    }\r\n\r\n    function winning_option() public view returns(uint winning_option_) {\r\n        uint winning_vote_count = 0;\r\n        for(uint option = 0; option < options.length; option++) {\r\n            if(num_votes(option) > winning_vote_count) {\r\n                winning_vote_count = num_votes(option);\r\n                winning_option_ = option;\r\n            }\r\n        }\r\n    }\r\n\r\n    function winner_name() public view returns (bytes32 winner_name_) {\r\n        winner_name_ = options[winning_option()].name;\r\n    }\r\n\r\n    function end_vote() public {\r\n        require(now >= end_time, \"vote not ended yet\");\r\n        require(!ended, \"already ended\");\r\n        ended = true;\r\n    }\r\n}",
  "sourcePath": "C:/Users/shark/Documents/voting/contracts/Vote.sol",
  "compiler": {
    "name": "solc",
    "version": "0.5.8+commit.23d335f2.Emscripten.clang"
  },
  "schemaVersion": "3.0.11",
  "updatedAt": "2019-07-18T00:54:54.865Z",
  "devdoc": {
    "methods": {}
  },
  "userdoc": {
    "methods": {}
  }
}