{
  "contractName": "Vote",
  "abi": [
    {
      "constant": true,
      "inputs": [
        {
          "name": "",
          "type": "uint256"
        }
      ],
      "name": "options",
      "outputs": [
        {
          "name": "name",
          "type": "bytes32"
        },
        {
          "name": "vote_count",
          "type": "uint256"
        }
      ],
      "payable": false,
      "stateMutability": "view",
      "type": "function"
    },
    {
      "constant": true,
      "inputs": [
        {
          "name": "",
          "type": "address"
        }
      ],
      "name": "voters",
      "outputs": [
        {
          "name": "reputation",
          "type": "uint256"
        },
        {
          "name": "voted",
          "type": "bool"
        },
        {
          "name": "name",
          "type": "address"
        },
        {
          "name": "vote",
          "type": "uint256"
        }
      ],
      "payable": false,
      "stateMutability": "view",
      "type": "function"
    },
    {
      "inputs": [
        {
          "name": "choices",
          "type": "bytes32[]"
        }
      ],
      "payable": false,
      "stateMutability": "nonpayable",
      "type": "constructor"
    },
    {
      "constant": false,
      "inputs": [
        {
          "name": "option",
          "type": "uint256"
        }
      ],
      "name": "vote",
      "outputs": [],
      "payable": false,
      "stateMutability": "nonpayable",
      "type": "function"
    },
    {
      "constant": true,
      "inputs": [
        {
          "name": "option",
          "type": "uint256"
        }
      ],
      "name": "num_votes",
      "outputs": [
        {
          "name": "num_votes_",
          "type": "uint256"
        }
      ],
      "payable": false,
      "stateMutability": "view",
      "type": "function"
    },
    {
      "constant": true,
      "inputs": [],
      "name": "total_votes",
      "outputs": [
        {
          "name": "total_votes_",
          "type": "uint256"
        }
      ],
      "payable": false,
      "stateMutability": "view",
      "type": "function"
    },
    {
      "constant": true,
      "inputs": [],
      "name": "winning_option",
      "outputs": [
        {
          "name": "winning_option_",
          "type": "uint256"
        }
      ],
      "payable": false,
      "stateMutability": "view",
      "type": "function"
    },
    {
      "constant": true,
      "inputs": [],
      "name": "winner_name",
      "outputs": [
        {
          "name": "winner_name_",
          "type": "bytes32"
        }
      ],
      "payable": false,
      "stateMutability": "view",
      "type": "function"
    }
  ],
  "bytecode": "0x608060405234801561001057600080fd5b506040516108ae3803806108ae8339810180604052610032919081019061015a565b60008090505b81518110156100bb576001604051806040016040528084848151811061005a57fe5b6020026020010151815260200160008152509080600181540180825580915050906001820390600052602060002090600202016000909192909190915060008201518160000155602082015181600101555050508080600101915050610038565b5050610211565b600082601f8301126100d357600080fd5b81516100e66100e1826101c8565b61019b565b9150818183526020840193506020810190508385602084028201111561010b57600080fd5b60005b8381101561013b57816101218882610145565b84526020840193506020830192505060018101905061010e565b5050505092915050565b600081519050610154816101fa565b92915050565b60006020828403121561016c57600080fd5b600082015167ffffffffffffffff81111561018657600080fd5b610192848285016100c2565b91505092915050565b6000604051905081810181811067ffffffffffffffff821117156101be57600080fd5b8060405250919050565b600067ffffffffffffffff8211156101df57600080fd5b602082029050602081019050919050565b6000819050919050565b610203816101f0565b811461020e57600080fd5b50565b61068e806102206000396000f3fe608060405234801561001057600080fd5b506004361061007d5760003560e01c80637f8bdde01161005b5780637f8bdde0146100ed5780638be8932f1461010b578063a3ec138d14610129578063a834b0551461015c5761007d565b80630121b93f14610082578063409e22051461009e5780636ede603d146100cf575b600080fd5b61009c6004803603610097919081019061045a565b61018c565b005b6100b860048036036100b3919081019061045a565b61027a565b6040516100c692919061051a565b60405180910390f35b6100d76102ab565b6040516100e49190610563565b60405180910390f35b6100f56102de565b60405161010291906104ff565b60405180910390f35b61011361030b565b6040516101209190610563565b60405180910390f35b610143600480360361013e9190810190610431565b610382565b604051610153949392919061057e565b60405180910390f35b6101766004803603610171919081019061045a565b6103df565b6040516101839190610563565b60405180910390f35b60008060003373ffffffffffffffffffffffffffffffffffffffff1673ffffffffffffffffffffffffffffffffffffffff16815260200190815260200160002090508060010160009054906101000a900460ff1615610220576040517f08c379a000000000000000000000000000000000000000000000000000000000815260040161021790610543565b60405180910390fd5b60018160010160006101000a81548160ff02191690831515021790555081816002018190555080600001546001838154811061025857fe5b9060005260206000209060020201600101600082825401925050819055505050565b6001818154811061028757fe5b90600052602060002090600202016000915090508060000154908060010154905082565b600080600090505b6001805490508110156102da576102c9816103df565b8201915080806001019150506102b3565b5090565b600060016102ea61030b565b815481106102f457fe5b906000526020600020906002020160000154905090565b6000806000905060008090505b60018054905081101561037d57816001828154811061033357fe5b9060005260206000209060020201600101541115610370576001818154811061035857fe5b90600052602060002090600202016001015491508092505b8080600101915050610318565b505090565b60006020528060005260406000206000915090508060000154908060010160009054906101000a900460ff16908060010160019054906101000a900473ffffffffffffffffffffffffffffffffffffffff16908060020154905084565b6000600182815481106103ee57fe5b9060005260206000209060020201600101549050919050565b60008135905061041681610626565b92915050565b60008135905061042b8161063d565b92915050565b60006020828403121561044357600080fd5b600061045184828501610407565b91505092915050565b60006020828403121561046c57600080fd5b600061047a8482850161041c565b91505092915050565b61048c816105d4565b82525050565b61049b816105e6565b82525050565b6104aa816105f2565b82525050565b60006104bd600e836105c3565b91507f416c726561647920766f7465642e0000000000000000000000000000000000006000830152602082019050919050565b6104f98161061c565b82525050565b600060208201905061051460008301846104a1565b92915050565b600060408201905061052f60008301856104a1565b61053c60208301846104f0565b9392505050565b6000602082019050818103600083015261055c816104b0565b9050919050565b600060208201905061057860008301846104f0565b92915050565b600060808201905061059360008301876104f0565b6105a06020830186610492565b6105ad6040830185610483565b6105ba60608301846104f0565b95945050505050565b600082825260208201905092915050565b60006105df826105fc565b9050919050565b60008115159050919050565b6000819050919050565b600073ffffffffffffffffffffffffffffffffffffffff82169050919050565b6000819050919050565b61062f816105d4565b811461063a57600080fd5b50565b6106468161061c565b811461065157600080fd5b5056fea265627a7a7230582003e3993182b8fa26b0930fc3191c6551c4951dd199d886bb8d77315aac1bffa16c6578706572696d656e74616cf50037",
  "source": "pragma solidity ^0.5.0;\r\npragma experimental ABIEncoderV2;\r\n\r\ncontract Vote{\r\n    struct Option {\r\n        bytes32 name;\r\n        uint vote_count;\r\n    }\r\n\r\n    struct Voter {\r\n        uint reputation;\r\n        bool voted;\r\n        address name;\r\n        uint vote; //index of option voted for\r\n    }\r\n\r\n    mapping(address => Voter) public voters;\r\n\r\n    Option[] public options;\r\n\r\n    //ask somebody about what memory means\r\n    constructor(bytes32[] memory choices) public {\r\n        for(uint i = 0; i < choices.length; i++) {\r\n            options.push(Option({\r\n                name: choices[i],\r\n                vote_count : 0\r\n            }));\r\n        }\r\n    }\r\n\r\n    function vote(uint option) public {\r\n        Voter storage sender = voters[msg.sender];\r\n        require(!sender.voted, \"Already voted.\");\r\n        sender.voted = true;\r\n        sender.vote = option;\r\n\r\n        options[option].vote_count += sender.reputation;\r\n    }\r\n\r\n    function num_votes(uint option) public view returns(uint num_votes_) {\r\n        num_votes_ = options[option].vote_count;\r\n    }\r\n\r\n    function total_votes() public view returns(uint total_votes_) {\r\n        for(uint option = 0; option < options.length; option++) {\r\n            total_votes_ += num_votes(option);\r\n        }\r\n    }\r\n\r\n    function winning_option() public view returns(uint winning_option_) {\r\n        uint winning_vote_count = 0;\r\n        for(uint option = 0; option < options.length; option++) {\r\n            if(options[option].vote_count > winning_vote_count) {\r\n                winning_vote_count = options[option].vote_count;\r\n                winning_option_ = option;\r\n            }\r\n        }\r\n    }\r\n\r\n    function winner_name() public view returns (bytes32 winner_name_) {\r\n        winner_name_ = options[winning_option()].name;\r\n    }\r\n}",
  "sourcePath": "C:/Users/shark/Documents/test/contracts/Vote.sol",
  "compiler": {
    "name": "solc",
    "version": "0.5.8+commit.23d335f2.Emscripten.clang"
  },
  "schemaVersion": "3.0.11",
  "updatedAt": "2019-07-16T13:17:24.448Z",
  "devdoc": {
    "methods": {}
  },
  "userdoc": {
    "methods": {}
  }
}